:020000040800F2
:10000000501A0020010100089D2700081126000851
:100010009927000859020008B543000800000000B5
:10002000000000000000000000000000A5270008FC
:100030006902000800000000A1270008A9270008A5
:100040001B0100081B0100081B0100081B01000820
:100050001B0100081B0100081B0100081B01000810
:100060001B0100081B0100081B0100085D020008BD
:100070001B0100081B0100081B0100081B010008F0
:100080001B0100081B0100081B0100081B010008E0
:10009000654200081B0100081B0100081B01000845
:1000A0001B0100081B0100081B0100081B010008C0
:1000B0001B0100081B0100081B0100081B010008B0
:1000C0001B0100081B0100081B0100081B010008A0
:1000D0001B0100081B0100081B0100081B01000890
:1000E0001B0100081B0100081B010008DFF80CD0F1
:1000F00000F018F800480047B9430008501A0020E3
:100100000648804706480047FEE7FEE7FEE7FEE7B1
:10011000FEE7FEE7FEE7FEE7FEE7FEE7AD270008A5
:10012000ED000008064C074D06E0E06840F00103D2
:1001300094E8070098471034AC42F6D3FFF7DAFF93
:10014000604600088046000870B58C1810F8015B06
:1001500015F0070301D110F8013B2A1106D110F860
:10016000012B03E010F8016B01F8016B5B1EF9D164
:100170002B0705D40023521E0DD401F8013BFAE7EA
:1001800010F8013BCB1A921C03E013F8015B01F855
:10019000015B521EF9D5A142D8D3002070BD0000EA
:1001A000B0B582B004460020019021688A68D20769
:1001B0004FD1886840F00100886040F29C00C2F294
:1001C000000000684DF68361C4F21B31A0FB010101
:1001D000880C01900198A0B1019801380190019814
:1001E00078B1019801380190019850B10198013817
:1001F0000190019828B101980138019001980028D8
:10020000EAD100F0D9FD21688968C9071CD10546EB
:1002100003E000BF8068C0071AD100F0CDFD411B8C
:1002200020680329F6D38168C907F3D1A06A40F09A
:100230001000A062E06A40F00100E062002084F853
:100240002400012002B0B0BD002002B0B0BD00BF4C
:10025000002002B0B0BD0000FEE7000040F2CC601C
:10026000C2F2000000F070BB70470000EFF3108096
:1002700072B600BFFEE7000010B581B00022009208
:1002800090F82420012A03D10221084601B010BDB4
:100290004B680122062B80F8242015D8026803EB56
:1002A0008303A3F1050E1F23D2F834C003FA0EF422
:1002B0000B682CEA040C03FA0EF444EA0C045463B1
:1002C000092B17D937E000BF02680C2B20D803EBAD
:1002D0008303A3F123041F23D2F830C003FA04FEE2
:1002E0000B682CEA0E0C03FA04F444EA0C041463C1
:1002F000092B20D8D2F810C003EB430307248968E8
:100300009C402CEA0404994021431161002136E00D
:1003100003EB8303A3F141041F23D2F82CC003FA9B
:1003200004FE0B682CEA0E0C03FA04F444EA0C04F5
:10033000D462092BDED903EB4304D2F80CC0A4F13C
:100340001E0E0724896804FA0EF42CEA040401FA4C
:100350000EF1214323F00104102CD1600ED142F2A2
:100360000841C4F20101A1F10804A2420ED0816A41
:1003700041F020018162012101E000BF0021002243
:1003800080F82420084601B010BD00BF0A681202A0
:1003900030D40A68102B42F400020A602CD140F2DB
:1003A0009C01C2F2000109684DF68362C4F21B325F
:1003B000A1FB0212910C01EB81014900009100990F
:1003C000E1B10099013900910099C9B10099013951
:1003D00000910099B1B1009901390091009999B14A
:1003E000009901390091009900294FF00001E8D1EE
:1003F000C5E700BF0021C2E70021C0E70021BEE73A
:100400000021BCE70021BAE70021B8E70068C06C12
:1004100070470000B0B5002800F0A8800446806A4C
:1004200020B121688868C0070BD114E00020E06289
:1004300084F82400204600F09BF821688868C007F3
:1004400009D0886820F00100886000F0B5FC2168C0
:100450008A68D20726D1A06AC0063AD4A06A41F2BF
:10046000021290430230A062E069D4E9013240EA0E
:10047000030C531EB3FA83F35D091346B2F5807F74
:1004800018BF2B02207D257B01284CEA450030D186
:1004900035B3A56A45F02005A562E56A45F001057A
:1004A000E56226E0054602E08868C007D3D000F088
:1004B00083FC401B21680328F6D38868C007F3D06B
:1004C000A06A40F01000A062E06A40F00100E06223
:1004D000A06AA06A40F01000A0620120B0BD00BF79
:1004E000D4F818C04EF60005CFF6FF7505EB4C3575
:1004F0002B434D68B2F5807F25F4694543EA050337
:100500004B608B684FF2FD75CFF6E17503EA05038A
:1005100043EA00038B6001D0012A07D1226900233E
:10052000CFF6F07303EB025201E000BF0022CB6A6A
:1005300023F470031A43CA62896840F6FE62CFF65C
:100540001F721140814207D10020E062A16A01229E
:1005500062F30101A162B0BDA06A40F0100020F07A
:100560000200A062E06A40F00100E0620120B0BD3C
:1005700070B586B0044640F60000C4F20100216860
:1005800000F5E052002691420596049602D006B08E
:1005900070BD00BF41F21801C4F202010A6842F4C2
:1005A00000720A600A6802F400720192019A0A68F5
:1005B00042F004020A60096801F004010191019906
:1005C000042102910321039102A900F0E5FA40F20F
:1005D000CC650820C2F20005C4F202004FF480721C
:1005E000C5E9000605F1100080214FF480634FF04B
:1005F000200C80E80C102846C5E90261EE6100F08D
:1006000073FA002818BFFFF731FE25626C6206B04E
:1006100070BD0000F0B581B000270D46044600977C
:1006200000F0CAFB21688A68D20543D406464868B0
:10063000C00503D4C86A10F4700F45D040F29C0086
:10064000C2F200000768022001F03EFB216844F678
:1006500024130A69B7FBF0F0C2F292431A4206D1A2
:10066000CA6844F62413C0F292031A425ED00A69A3
:1006700042F29243C1F249231A4207D1CA6842F2B8
:100680009243C0F249031A4200F0C0800A6949F25D
:100690004923C0F224031A424FF0FC0257D1CF681D
:1006A0001F4208BF5422009B02FB00F7BB4253D3FA
:1006B000C3E000BFA06A40F02000A06284F824706C
:1006C000012001B0F0BD00BF0868800700F1B580CF
:1006D000681C00F0A880FDB90868800772D508681A
:1006E000800700F1AA80086880076BD5086880073A
:1006F00000F1A3800868800764D50868800700F1CE
:100700009C80086880075DD508688007E4D594E080
:100710000868800700F1918000F04EFB801B216883
:10072000A842F5D908688007F2D44BE00A6942F282
:100730009243C1F249231A424FF0290207D1CB68F4
:1007400042F29247C0F249073B4208BF1422009B85
:1007500002FB00F7BB4270D2681C4FD055BB00981B
:10076000B8422FD30098013000900098B84264D26C
:100770000098B84226D30098013000900098B84203
:100780005BD20098B8421DD30098013000900098C9
:10079000B84252D20098B84214D300980130009069
:1007A0000098B842DBD348E00098013000900098F0
:1007B000B84233D200F000FB801BA842F4D9009865
:1007C000B842F1D2A06A40F00400A062002084F890
:1007D0002400032001B0F0BD009801300090009883
:1007E000B8422AD20098013000900098B84224D232
:1007F0000098013000900098B8421ED20098013055
:1008000000900098B842E7D317E000BF5422009B45
:1008100002FB00F7BB429FD30FE000BF21680CE052
:100820000868800709D40868800706D4086880072C
:100830005CBF08685FEA8070F2D56FF01200086054
:10084000A06A40F40070A062886800F46020B0F5EF
:10085000602F01D1207B18B1002001B0F0BD00BF96
:10086000A06A20F48070A062A06AC004F4D4A06AD8
:1008700040F00100A062002001B0F0BD10B50446B8
:1008800090F82400012804BF022010BD012084F844
:1008900024002046FFF784FC20B1002184F82410B6
:1008A00010BD00BF42F2044C2068A16AC4F2010CE2
:1008B00040F2013291430CF57F7201F58071904254
:1008C000A16233D0A16A21F48011A1624168490577
:1008D00004D5A16A012363F30D31A162A16A00234B
:1008E000C9044FF0000144BFE16A21F00601E16252
:1008F0006FF0020184F824300160816801F4602106
:10090000B1F5602F06D190420AD1DCF8001011F445
:10091000702F05D0816841F480118160002010BDE6
:10092000816841F4A0018160002010BDDCF8001056
:1009300011F4702FC6D0A16A41F48011A162DCF8D5
:1009400000104905C5D4C9E710B5D0E90FCE01683C
:10095000DCF800300A6823FA0EF35C072AD512F09F
:10096000040427D00A68920603D40A6822F004021D
:100970000A602F22C4F20202914240F20402C4F241
:1009800002025BDD3023C4F20203994272D0442399
:10099000C4F20203994273D05823C4F2020399426D
:1009A00040F07A804FF480231360C16A002940F040
:1009B00098806FE09C0727D512F0020424D00A68C3
:1009C000920606D40A6822F00A020A60012280F820
:1009D00021202F22C4F20202914240F20402C4F20A
:1009E00002023BDD3023C4F20203994260D044236B
:1009F000C4F2020399425FD05823C4F20203994221
:100A000060D14FF4003365E01B0743D512F00802B4
:100A100008BF10BD0A6822F00E020A60012101FA27
:100A20000EF2CCF80420816380F82110016B0022C3
:100A3000002980F8202054D12CE000BF0823C4F204
:100A40000203994222D01C23C4F20203994223D10B
:100A500040231360C16A002943D11BE00823C4F27C
:100A6000020399422CD01C23C4F20203994229D1DB
:100A700020232FE04FF480631360C16A89BB09E033
:100A80004FF480431360C16A59BB03E00423136031
:100A9000C16A31BB10BD00BF02F168044FF0806332
:100AA000A14208BF4FF480031360C16AC9B9F1E7DE
:100AB0004FF400730EE000BF4FF400530AE000BF94
:100AC000022307E002F168044FF00073A14208BF5F
:100AD0004FF400131360816A0022002980F820205F
:100AE000D8D0BDE810400847014600284FF001006B
:100AF00008BF70472DE9F043D1F800C04FF6F873F6
:100B0000CBF6FD734CF6CD426344CCF6CC42A3FB4E
:100B100002236FF0030707EA93030027C4F20207DA
:100B200001F10C09C1E90F730223D1E9012E99E803
:100B30007002D1F81C8081F82130DCF8003043F6D7
:100B4000F077BB431A4342EA0E0222432A43324360
:100B500042EA090242EA0802CCF8002000228A6335
:100B600081F8210081F820200020BDE8F043704783
:100B7000B0B5044600F020F9054640F20000C2F28C
:100B800000000078611C18BF044400BF00F014F995
:100B9000401BA042FAD3B0BD2DE9F04F82B041F224
:100BA0000042C4F201020E680423904208BF0323EE
:100BB000002E009300F0F68040F2004C4FF6FF7ECE
:100BC0000022C4F2010C0124C1F2100E4FF0000A01
:100BD0004FF0000947E000BF012502F00C040F2789
:100BE000A7402BEA070705FA04F43C4343F82640E4
:100BF000D1F804B040F20C455FEACB23DCF80830B2
:100C000054BF23EA080343EA0803C4F20105CCF801
:100C100008302B685FEA8B2454BF23EA080343EAB9
:100C200008032B605FEA8B34DCF8043054BF23EAFE
:100C3000080343EA08035FEACB34CCF80430DCF85D
:100C400000304FF0010454BF23EA080343EA0803CD
:100C5000CCF800300E680AF1010A36FA0AF302F104
:100C6000040200F09F8004FA0AF816EA080FF1D097
:100C70004B68734512DC122B56D8DFE803F0350BB6
:100C80004549555555555555555555555555554D38
:100C9000510000BFD1F80C9046E000BF4FF6FF7541
:100CA000C1F22105AB420FDC0025C1F21105AB42B8
:100CB0001AD00025C1F21205AB4215D00025C1F2B1
:100CC0002105AB4210D02FE00025C1F22205AB4236
:100CD0000AD00025C1F23105AB4205D00025C1F292
:100CE0003205AB4220D100BF8B684BB1012B14BF42
:100CF000C0F81480C0F810804FF0080914E000BF5D
:100D00004FF0040910E000BFCB6803F108090BE0C5
:100D10004FF0000908E000BFCB6803F1040903E0CD
:100D2000CB6803F10C0900BF13460546BAF1080F62
:100D300024BF203B04352E680F279F40BE4309FA8D
:100D400003F333432B60CB79DB067FF583AF41F2AE
:100D50001804C4F2020423684FEA9A0643F0010320
:100D60002360236840F6000403F001030193019B14
:100D7000ACF57E7353F826B0C4F20104A0420FD044
:100D800040F60044C4F20104A0423FF425AF41F212
:100D90000004C4F20104009DA04208BF02251CE724
:100DA00000251AE702B0BDE8F08F00008068084017
:100DB00018BF01207047000040F64820C2F2000032
:100DC0000068704740F2000040F64821C2F200007F
:100DD000C2F2000100780A68104408607047000001
:100DE00080B542F20000C4F20200016841F0100137
:100DF0000160032000F082F80F2000F005F800F0F9
:100E000027F8002080BD000070B540F20006C2F255
:100E1000000640F29C013278C2F200014FF47A736E
:100E20000968B3FBF2F20446B1FBF2F1084601F0A7
:100E30002BFB0F2C4FF0010508D838B94FF0FF30CD
:100E400021460022002500F02DF87460284670BD70
:100E500082B041F21800C4F20200016841F00101C1
:100E60000160016801F0010101910199416841F0BF
:100E700080514160406800F080500090009802B0BE
:100E800070470000002848BF704700F01F01012292
:100E900002FA01F14EF200124009CEF2000242F8CD
:100EA0002010704710B54EF60C5CCEF2000CDCF84A
:100EB0000030C3F3022E8EF00704042C28BF042454
:100EC000BEF103034FF0FF3E0EFA04F438BF0023D7
:100ED000A14399400EFA03F39A43114300F00F0225
:100EE000043A624409010C3200F16043B0F1FF3F63
:100EF000C8BF03F56442117010BD00004EF60C51DE
:100F0000CEF200010A684FF6FF031A4060F30A228E
:100F100042F0806040F0FD700860704780B501F0DD
:100F2000070C0CEB8C0C00EBCC0C01EB810E0CF1E4
:100F3000280C00EBCE00090658BF00F5B47C002059
:100F4000002A19BFCCF808300121ACF80630002186
:100F50008CF80C1080BD00007047000001EB81028E
:100F6000D0F8EC3200EBC200C26B184601F012BFA1
:100F700001EB8102D0F8EC3200EBC200D0F87C210A
:100F8000184601F06DBF000010B50446080601F0D8
:100F9000070000EB800104EBC10205D402F5B47137
:100FA000002382F8693104E0012302F1280182F86C
:100FB000293094F8A8220870012A04BF022010BD2D
:100FC0002068012284F8A82202F068FC002084F83E
:100FD000A80210BDB0B50446406801F00F0282427D
:100FE00084BF0120B0BD080601F0070000EB8001BE
:100FF00004EBC10206D402F5B471002382F8693112
:1010000005E000BF012302F1280182F8293094F89D
:10101000A8220025012A8D70087004BF0220B0BDEF
:101020002068012284F8A82202F0C8FC284684F82F
:10103000A852B0BDB0B50546080601F0070000EBA8
:10104000800105EBC10C05D40CF5B47100248CF8BB
:10105000694104E001240CF128018CF82940087052
:101060000A61022BCB7004BF0020087195F8A8021A
:10107000012804BF0220B0BD2868012285F8A822FB
:1010800002F0E0FA002085F8A802B0BD10B501F02A
:10109000070C0CEB8C0100EBC10E00680EF5B4716F
:1010A0000024CEF87C21CEF88031CEF884418EF831
:1010B00069418EF868C102F0D9FC002010BD000023
:1010C000B0B50446406801F00705854284BF0120A1
:1010D000B0BD08060AD401EB810004EBC00000F5A6
:1010E000B471002280F8692109E000BF05EB85009A
:1010F00004EBC000012200F1280180F8292094F8B7
:10110000A802012201288A700D7004BF0220B0BD20
:10111000206884F8A82202F08FFC1DB1002084F81A
:10112000A802B0BD206804F52C7102F045FC002037
:1011300084F8A802B0BD000080B501F0070C0CEBEC
:101140008C0100EBC10101F828CF00684FF0010CC1
:1011500001F1140781F824C04FF0000E87E80C401D
:101160000B6281F801C002F081FC002080BD00000C
:101170002DE9F04F81B00446006803F079F80104CE
:101180001CD4410500F1F483410400F1038481047F
:1011900000F11A84C10400F12184010500F13884B2
:1011A000810500F18784C00540F1F0832068B0F824
:1011B000441021F48071A0F84410E7E32068B0F9EE
:1011C0004410B1F1FF3F00F3E18304F52C7140F6C8
:1011D0000F7B009123E000BFB0F8501094F8682115
:1011E00001EBC20100EB4101B1F80C34B4F86E21FF
:1011F00000996FF39F23C4F8843103F03DF8206811
:10120000018801EA0B0180310180204600F026FDB3
:101210002068B0F94410B1F1FF3F00F3B783B0F894
:10122000442012F00F094BD030F829804FEA490AC8
:101230005FEA084140F15C8130F81A1040F60F7502
:1012400001EA0B01803120F81A1009EB890104EB47
:10125000C10B9BF874110BF5B476002900F0B08037
:101260009BF86B11022940F0BD80B0F85020317816
:101270005FEA484302EBC10200EB420200F1CC807E
:10128000B2F80C74DBF880216FF39F27D21B4FF06C
:10129000000338BF1A46CBF8802140F2D7805FEABE
:1012A000486200F1E38030F8212048F2C0032A4070
:1012B0001A4320F82120002F40F0D980FCE000BF25
:1012C0000188D2062CD401EA0B0101F5004101800E
:1012D000B0F8501094F8282001EBC20100EB410057
:1012E000B0F80404E16B6FF39F2060640844E0638E
:1012F00020460021FFF732FE94F82400002887D012
:10130000206C00287FF484AF94F82400216840F01A
:101310008000C0B2A1F84C00002084F8240077E7D8
:101320000A053FF559AF09047FF572AF018801EA5C
:101330000B0180310180B0F8501094F8682101EB66
:10134000C20100EB4101B1F80C346FF39F23C4F8E4
:10135000843193B1D4F87C1179B1B4F86E2102F0E4
:101360008BFFD4F87C01D4F884110844C4F87C01C4
:1013700020460021FFF7FCFD206801880A053FF5A3
:1013800047AF01F44051B1F5405F3FF441AFB0F8D1
:10139000501000F20C42535A6FF39F235352D4F86B
:1013A00078313F2BC0F00282DE068E5A4FEA531787
:1013B0004FF0FF3508BF05EB531746EA87237EE25F
:1013C000B0F85010327801EBC20100EB4101B1F8E6
:1013D0000C746FF39F27002F6ED0DBF87C11BBF8E5
:1013E0006E2165E0317848F2C00330F821202A40B0
:1013F0001A4320F8212030F82120B0F85030520450
:1014000003EBC10100EB41011AD4B1F80C746FF386
:101410009F2767BB50E000BFB2F80474DBF880215F
:101420006FF39F27D21B4FF0000338BF1A46CBF84B
:10143000802121D95FEA48622DD4AFBB3CE000BFD8
:10144000B1F804746FF39F2777BB35E030F82120A3
:1014500043F60F731A404CF28003A3F500535A4031
:1014600020F821205FEA48627FF51DAF27B3DBF843
:101470007C11BBF872211BE030F8212043F60F737A
:101480001A404CF28003A3F500535A4020F8212063
:101490005FEA4862D1D530F8212048F2C0032A40E3
:1014A0001A4320F821203FB1DBF87C11BBF87021F2
:1014B0003B4602F0E1FE00E00027DBF88411DBE9A7
:1014C0005F0239443844CBF88411CBF87C011AB15F
:1014D000DBF87801B84205D931782046FFF748FD9E
:1014E00004E000BF2068314602F0C0FA40F60F7BEE
:1014F0005FEA08607FF58CAE206809EB890130F85F
:101500001A3004EBC10203EA0B0101F5004120F897
:101510001A1092F82B1002F12806012924D192F812
:10152000341000294FF00001116400F03A815FEAA5
:10153000486100F1878092F82910012900F01E818E
:10154000002940F02E81B0F850103278084400EBAA
:101550000210B0F80C146FF39F21A0F80C14B0F82F
:101560000C1441F4004110E15FEAC8511CD4B0F8FA
:1015700050303178176C03EBC10300EB4303B3F831
:10158000043400256FF39F23FF1A38BF2F461764DA
:1015900040F20881D16B576C1944D163F91851643A
:1015A000314602F063FA33E6B0F8503031785FEA42
:1015B000486703EBC1035FD400F20C4939F813709C
:1015C000136C6FF39F27DB1B4FF0000538BF2B46D2
:1015D000136440F28B805FEA484308D430F821302E
:1015E0004CF2800503EA0B032B4320F8213015460B
:1015F00015F84C3F012B40F0AB81134653F8488F50
:1016000053E904EC53F804ACBC44BA44F04543F845
:101610000CCC43F804AC80F00981B8F1000F00F065
:1016200067810027C6461F602F7092F82930012B72
:1016300040F00481B0F8503009EB011121F803E0CB
:101640007AE100BF92F82910012900F0A180002959
:1016500040F0A780B0F850103278084400EB021038
:10166000B0F804146FF39F21A0F80414B0F8041428
:1016700041F4004193E000BF00F2044939F81370CF
:10168000136C6FF39F27DB1B4FF0000538BF2B4611
:1016900013644FD95FEA484308D530F821304CF243
:1016A000800503EA0B032B4320F82130134613F87F
:1016B0004C5F012D40F04C81154655F848EF55E937
:1016C00004AC55F8048CBC44B844D64545F80CCC61
:1016D00045F8048C80F0CE804FF00008BEF1000F7A
:1016E00083F8008040F0C980BE46C8E092F8292007
:1016F000012A67D0002A72D1B0F8502000EB011304
:101700001A44B2F804346FF39F23A2F80434B2F8F9
:10171000043443F40043A2F80434B0F8500009EB59
:101720000112135A6FF39F231352135A43F40043C9
:1017300054E000BF92F82920012A57D0002A62D134
:10174000B0F8502009EB01139F5A6FF39F279F5267
:101750009F5A47F400479F52B0F8502000EB011009
:101760001044B0F80C246FF39F22A0F80C24B0F8BA
:101770000C2442F40042A0F80C2444E0B0F85010CD
:101780003278084400EB02100021A0F80C1408E0A5
:10179000B0F850103278084400EB02100021A0F895
:1017A000041431782046FFF7D9FB31E5002B00F017
:1017B000858003F001078E5A07EB530346EA832323
:1017C00082E000BFB0F8502000EB01131A44002360
:1017D000A2F80434B0F8500009EB0112135220466D
:1017E000FFF7BCFB5FEA484014D5B1E0B0F85020E9
:1017F00009EB011300279F52B0F8502000EB0110B5
:101800001044A0F80C742046FFF7A8FB5FEA48409C
:1018100040F19E80206831784CF2800330F821201E
:1018200002EA0B021A4320F8212091E0A8EB0E05F2
:101830001D6092F82930012B3FF4FCAE002B7BD1C8
:10184000B0F8507009EB0111CB5BBEF13F0F6FF3A5
:101850009F23CB5354D34FEA5E135FEACE6537F82C
:1018600001804FF0FF3508BF05EB5E1348EA832384
:101870005FE000BFAEEB0A08D646C5F8008092F8DC
:101880002930012B2CD0002B5CD1B0F8507009EB23
:101890000111CB5BBEF13F0F6FF39F23CB533BD3C3
:1018A0004FEA5E135FEACE6537F801804FF0FF35EF
:1018B00008BF05EB5E1348EA832340E08B5A48F2E9
:1018C0000007CFF6FF773B438B52018843F60F7238
:1018D00011404CF28002A2F580525140018097E401
:1018E000B0F8503009EB011121F803E02AE000BF05
:1018F00000232B70BE4692F82930012B9ED199E629
:10190000BEF1000F14D00EF001037D5A03EB5E030D
:1019100045EA83230FE000BFBEF1000F0ED00EF0AA
:1019200001037D5A03EB5E0345EA832309E000BF10
:101930007B5A43F400437B52528E04E07B5A43F4BB
:1019400000437B52128E1FFA8EF3614602F0EEFCCA
:101950002068317840F63F7330F821201A4048F271
:10196000C003103B5A4020F82120FFF751BC00BFB4
:101970002068B0F8441021F48061A0F8441020469B
:1019800000F03EF994F8A80201280DD101B0BDE89D
:10199000F08F00BF2068B0F8441021F48041A0F817
:1019A000441001B0BDE8F08F0120002584F8A802A2
:1019B00084F824502068002102F0B0FC84F8A8527A
:1019C00001B0BDE8F08F00BF2068B0F8441021F4EA
:1019D0000051A0F8441001B0BDE8F08F2068B0F8C5
:1019E000401021F00401A0F84010B0F8401021F0A0
:1019F0000801A0F84010204600F014F92068B0F863
:101A0000441021F48051A0F8441001B0BDE8F08FDB
:101A10002168B1F800C0B1F804E0B1F808808F89FE
:101A20000E8A8D8A088B8A8BB1F8403043F001030F
:101A3000A1F84030B1F8403023F00103A1F8403064
:101A4000B1F844305B050CD4B1F844305B055CBFA1
:101A5000B1F844305FEA435303D4B1F844305B0536
:101A6000EED5B1F8443023F48063A1F84430A1F8F6
:101A700000C0A1F804E0A1F808808F810E828D8259
:101A800008838A83B1F8400040F00800A1F84000C4
:101A9000B1F8440020F40060A1F84400B1F840001F
:101AA00040F004022046A1F8402001B0BDE8F04F0C
:101AB00000F0F6B82168B1F8440020F40072204626
:101AC000A1F8442001B0BDE8F04F00F0AFB800002D
:101AD000F0B585B000285ED0044690F8A90228B978
:101AE000002084F8A802204600F066F8032084F85D
:101AF000A902206801F056FF94E82F50D4E9076747
:101B00008DE82050CDE9036701F0C6FE00283FD1E3
:101B100020680021002502F0FFFB616841B301202D
:101B20000023002203EB830304EBC30787F828207C
:101B30000132D3B2994287F8290087F82B50C7E9C0
:101B40000E553D64EED800200023002203EB8303F2
:101B500004EBC30787F868210132D3B2994287F8B2
:101B6000690187F86B01C7E95E00C7F88001EDD80D
:101B700004F10807D4E9056520688CCFD4E907CEC5
:101B8000CDE9007602AE86E8205001F0FDFE38B1C6
:101B9000022084F8A9020125284605B0F0BD00BF47
:101BA0000025012084F8245084F8A902206801F05F
:101BB000E9FE284605B0F0BD80B582B0006845F664
:101BC0000041C4F2000188421CBF02B080BD41F256
:101BD0001C00C4F202000168002241F4000101600F
:101BE0000068002100F40000019001981420FFF724
:101BF00059F9142002B0BDE88040FFF743B9000056
:101C000010B504468068022818BFFEF72FFBD4F8F1
:101C1000EC02012101F016FAD4F8EC02BDE8104004
:101C200001F0CEB9D0F8EC0201F0F4B9D0F8EC0232
:101C300001F0FAB910B5044690F8A802012804BFD3
:101C4000022010BD012084F8A80284F82410206826
:101C500002F064FB002084F8A80210BDD0F8EC224A
:101C600000F52C71104601F003BA000010B50446CF
:101C700090F8A802012804BF022010BD20680121AD
:101C800084F8A81202F0E4FA20460121FFF764F973
:101C9000206801F075FE002084F8A80210BD000045
:101CA00010B50446D0F8EC0201F038FAA06900281B
:101CB00008BF10BD4EF61050CEF20000016841F092
:101CC0000601016010BD000080B5012818D002286F
:101CD00036D0102832D141F20401C4F202010A6860
:101CE00051F8040CC00129D5C2F383402DA3185C20
:101CF000D2033DD440F60012C0F23D02504343E00F
:101D000041F20400C4F20200C16940F202320A400A
:101D1000B2F5817F04BF4FF4004080BD01F44071F3
:101D2000B1F5407F1CD0B1F5007F07D1006A49F6BC
:101D30004041800701EAE07080BD00BF002080BD07
:101D400000F0B4F941F20401C4F202010968022270
:101D5000C1F3813102EB4101B0FBF1F080BD00BF66
:101D600050F8040C4FF22441800301EAE07080BD7A
:101D70000A6810A3C2F340429A5C41F20023C0F209
:101D80007A03B3FBF2F250430968490248BF80BDB1
:101D90004AF6AB214000CAF6AA21A0FB010148087F
:101DA00080BD00BF02030405060708090A0B0C0DDD
:101DB0000E0F1010010200002DE9F04182B0044620
:101DC000007841F21C06C007C4F202064AD030680F
:101DD00010F0805808D1306840F080503060306892
:101DE00000F080500190019847F20007C4F200070C
:101DF0003868C00512D4386840F480703860FEF747
:101E0000DBFF05463868C00508D4FEF7D5FF401B48
:101E10006428F7D9032002B0BDE8F081706810F49F
:101E2000407012D0616801F4407188420DD0706832
:101E300040F24042C4F24222012320F44071136078
:101E40000023C007136071602AD17068616820F4B4
:101E500040700843B8F1000F706003D1306820F083
:101E6000805030602068810707D556F8181CA2689A
:101E700021F44041114346F8181CC00604D4002048
:101E800002B0BDE8F08100BF56F8180CE16820F4FC
:101E90008000084346F8180C002002B0BDE8F0812D
:101EA000FEF78AFF054641F2883700BF7068800759
:101EB000CBD4FEF781FF401BB8424FF00300F5D9A9
:101EC000EBE700002DE9F04381B0002800F08580A9
:101ED00042F20008C4F202080446D8F800000D4699
:101EE00000F0070088420CD2D8F8000020F007006C
:101EF0002843C8F80000D8F8000000F00700A84206
:101F00006BD1206841F204098107C4F2020917D598
:101F1000410705D5D9F8001041F4E061C9F8001077
:101F2000010705D5D9F8001041F46051C9F8001037
:101F3000D9F80010A26821F0F0011143C9F800108F
:101F4000C00741D1D8F8000000F00700A8420CD922
:101F5000D8F8000020F007002843C8F80000D8F89F
:101F6000000000F00700A84237D12068410707D5DC
:101F7000D9F80010E26821F4E0611143C9F80010BB
:101F8000000708D5D9F80000216920F4605040EA24
:101F9000C100C9F80000D9F8002002F00C000828A0
:101FA00041F20020C0F27A0050D144F24E63C2F3F5
:101FB0008341C0F60003595CD2033BD440F60010C5
:101FC000C0F23D00484341E0606802280AD0012881
:101FD0002AD159F8041C890308D4012001B0BDE8B6
:101FE000F08300BF59F8041C8901F6D5D9F8001018
:101FF00021F003010843C9F80000FEF7DDFE0646A4
:1020000041F28837D9F80000616800F00C00B0EBAD
:10201000810F97D0FEF7D0FE801BB842F2D9032083
:1020200001B0BDE8F08300BF59F8041C8907D4D57E
:10203000DCE700BFD9F8002044F24C63C2F3404211
:10204000C0F600039A5C4843B0FBF2F0D9F80010E8
:1020500044F23462C1F30311C0F60002515C40F255
:102060009C0220FA01F140F20400C2F20000006874
:10207000C2F200021160FEF7C7FE002001B0BDE809
:10208000F083000040F29C0041F20401C2F2000023
:10209000C4F202010068096844F24462C1F30221FB
:1020A000C0F60002515CC8407047000040F29C003E
:1020B00041F20401C2F20000C4F2020100680968A2
:1020C00044F24462C1F3C221C0F60002515CC84030
:1020D000704700002DE9F04182B0002868D0044626
:1020E000007841F20006C007C4F2020625D07068ED
:1020F00000F00C0004281BD0706800F00C000828C9
:1021000002D17068C00313D46068002800F06881B1
:10211000B0F5A02F00F07C81B0F5803F00F07C810D
:10212000306820F480303060306820F4802076E120
:102130003068800301D56068D0B32078800718D557
:10214000706810F00C0F07D0706800F00C000828C1
:102150006ED17068C0036BD43068800702D52069E7
:10216000012825D13068616920F0F80040EAC100FB
:102170003060207800071FD42078400732D4E5690A
:1021800095B1706800F00C00082840F08F80012D98
:102190000ED07068216A00F480328A4208D1616AE8
:1021A00000F47010884203D1002002B0BDE8F08135
:1021B000012002B0BDE8F081A069002862D00020B3
:1021C000C4F242200121C0F88014FEF7F5FD054657
:1021D000706A800700F18C80FEF7EEFD401B02283C
:1021E000F6D92AE1F06910F0805808D1F06940F082
:1021F0008050F061F06900F080500090009847F244
:102200000007C4F200073868C00529D4386840F4D4
:1022100080703860FEF7D0FD054600BF3868C00505
:102220001ED4FEF7C9FD401B6428F7D905E100BFA5
:102230002069002840F20000C4F2422000F08280B1
:1022400001210160FEF7B8FD054600BF3068800738
:102250003FF588AFFEF7B0FD401B0228F6D9ECE051
:10226000E068002800F08080052800F097800128B1
:1022700000F09880306A20F001003062306A20F06F
:10228000040092E00020C4F242200021C0F8801433
:10229000FEF792FD054600BF706A80077FF56CAFC0
:1022A000FEF78AFD401B0228F6D9C6E00027C4F2DB
:1022B000422700203866FEF77FFD022D05460BD130
:1022C0003068800140F1BE80FEF776FD401B022899
:1022D0004FF00300F4D968E7306880017FF564AF00
:1022E000FEF76AFD401B02284FF00300F4D95CE7BB
:1022F00040F29C00C2F20000006844F6D351C1F2E3
:102300006201A0FB0101480A019000BF00BF0198D3
:10231000411E002801913FF42FAF00BF0198411EDC
:10232000002801913FF428AF00BF0198411E00280A
:1023300001913FF421AF00BF0198411E0028019197
:10234000E4D119E700210160FEF736FD054600BF24
:10235000306880077FF50DAFFEF72EFD401B022889
:102360004FF00300F4D920E7306A20F0010030621A
:10237000306A20F004003062FEF71EFD054641F28F
:10238000883700BF306A800720D5FEF715FD401B57
:10239000B8424FF00300F5D907E700BF306A40F0BC
:1023A00004003062306A40F001003062FEF704FD44
:1023B000054641F2883700BF306A800706D4FEF731
:1023C000FBFC401BB842F7D937E000BFB8F1000F63
:1023D0007FF4D5AEF06920F08050F061CFE600BF09
:1023E000306820F480303060306820F48020306025
:1023F000FEF7E2FC054600BF306880037FF59DAE26
:10240000FEF7DAFC401B64284FF00300F4D9CCE659
:10241000306840F480203060306840F480303060B4
:10242000FEF7CAFC054600BF306880033FF585AE65
:10243000FEF7C2FC401B6428F6D9032002B0BDE8B9
:10244000F08100BF206AB0F5803F05D17168A268B5
:1024500021F40031114371607168626A21F47411D2
:1024600010430843706001203866FEF7A5FC04465F
:10247000306880013FF598AEFEF79EFC001B0228F5
:102480004FF00300F4D990E6411E0020B0EB116F2D
:102490001CBF012070474EF21002CEF200025160C4
:1024A0004EF62351CEF20001F0230B70072190600D
:1024B00011607047002804BF0120704710B5044622
:1024C00090F8410028B9002084F84000204600F030
:1024D00061F8242084F841002068D4E90212C3681E
:1024E00023F40053C360036923F440531A43026189
:1024F000D4E904231143C268194341F20C639A439F
:102500001143C1604169A26921F44071114343F64E
:102510000002C4F201029042416103D0FFF7B2FD14
:1025200002E000BFFFF7C2FD626819214843910035
:10253000B0FBF1F048F21F51C5F2EB11A0FB0123F3
:102540005A096FF0630302FB0300322303EB001010
:10255000A0FB0101F02303EA5113206803EB0212F0
:10256000C1F3431111448160016921F4904101617B
:10257000416921F02A014161C16841F40051C16003
:1025800000202021606484F8411084F842106063C8
:1025900010BD000070B586B040F60004C4F201041E
:1025A000006804F5405100268842049602D006B027
:1025B00070BD00BF41F21800C4F20200016802AD14
:1025C00041F480410160016801F480410191019969
:1025D000016841F0040101600068294600F0040030
:1025E000019001984FF400700290022003900320A4
:1025F00005902046FEF7D0FA4FF48060CDE9020640
:10260000204629460496FEF7C7FA06B070BD0000C2
:10261000FEE70000B0B584B040F29C6042F2004199
:10262000C2F20000C4F20101002401254FF460222F
:1026300005730475C261C0E9001484600561FDF78B
:10264000E9FE002818BFFDF711FE0220CDE90105C3
:1026500040F29C60C2F2000001A90394FDF70CFE59
:10266000002818BFFDF702FE04B0B0BD80B582B0EF
:1026700041F21400C4F202000168002241F001019D
:1026800001600068002100F00100019001980B201A
:10269000FEF708FC0B2002B0BDE88040FEF7F2BB5D
:1026A00080B586B0002041F218010590C4F2020105
:1026B0000A6842F020020A600A6802F020020192D1
:1026C000019A0A6842F004020A600A6802F00402F1
:1026D0000192019A0A6842F008020A60096801F052
:1026E0000801019101994FF60341CDE90210012043
:1026F000049040F60040C4F2010002A9FEF74CFA33
:1027000006B080BD80B540F6002043F60001C2F25D
:102710000000C4F2010100234FF00C0C4FF4E13231
:1027200080E80E00C0E90333C0E905C3C361FFF7C9
:10273000C1FE002808BF80BDBDE88040FDF796BD02
:1027400080B540F2D83040F20801C2F20000C2F277
:102750000001002200F0E2FA002818BFFDF786FD14
:1027600040F2D83040F2B401C2F20000C2F20001DF
:1027700000F0FCFC002818BFFDF778FD40F2D830CF
:10278000C2F2000000F008FD002808BF80BDBDE8CF
:102790008040FDF76BBD0000FEE70000FEE7000093
:1027A0007047000070470000FEF70CBB7047000048
:1027B00080B5D0F8B42252689047002080BD000058
:1027C00080B513460A46002100F0E8FB002080BDDA
:1027D00080B513460A46002100F0AAFC002080BD07
:1027E00010B58021044600F075FC20460021BDE8AC
:1027F000104000F06FBC000080B50521C0F89412B5
:1028000000210022002300F0C9FB002080BD000051
:1028100080B513460A460221C0F894120021C0E98F
:10282000073300F085FC002080BD000080B5042146
:10283000C0F8941200210022002300F079FC00204F
:1028400080BD000010B540F2C414C2F200040A4674
:1028500002A0214600F010F9204610BD484944204E
:10286000436F6E666967000040F2A0001222C2F258
:1028700000000A807047000010B540F2C414C2F294
:1028800000040A4602A0214600F0F6F8204610BDDA
:1028900048494420496E74657266616365000000B2
:1028A00040F288100422C2F200000A807047000043
:1028B00010B540F2C414C2F200040A4602A0214638
:1028C00000F0DAF8204610BD53544D6963726F650D
:1028D0006C656374726F6E696373000010B540F2CB
:1028E000C414C2F200040A4602A0214600F0C4F853
:1028F000204610BD53544D33322048756D616E2013
:10290000696E74657266616365000000B0B54FF270
:10291000E870C1F6FF70026883684FF01A0C9B18CC
:10292000A1F800C000F0A3804FF0370C1A0F0CEB99
:1029300013714068B3F1204F38BF02F1300140F20B
:102940008C12C2F20002917019014FF0000E0CEBD4
:10295000117582F803E0C3F30364B1F1204F38BF6F
:1029600004F13005190215710CEB117582F805E0C0
:10297000C3F30354B1F1204F38BF04F130051903FC
:1029800095710CEB117582F807E0C3F30344B1F1C4
:10299000204F38BF04F13005190415720CEB117586
:1029A00082F809E0C3F30334B1F1204F38BF04F1DA
:1029B0003005190595720CEB117582F80BE0C3F325
:1029C0000324B1F1204F38BF04F130051906157307
:1029D000C3F303140CEB1175B1F1204F4FEA0371EF
:1029E00003F00F0382F80DE038BF04F1300503F166
:1029F0003704957382F80FE0B1F1204F38BF03F12F
:102A00003004010F0CEB1073147482F811E0B0F174
:102A1000204F38BF01F1300301010CEB11749374A6
:102A200082F813E0C0F30363B1F1204F38BF03F124
:102A3000300401021475C0F303530CEB1174B1F1AF
:102A4000204F4FEA003182F815E038BF03F130041F
:102A50000CEB1173947582F817E0C0F30340B1F1E9
:102A6000204F38BF00F13003137682F819E040F2AE
:102A70008C10C2F20000B0BD10B5002868D00378F9
:102A8000B3B100F1020E4FF0000C00BF1EF8013C84
:102A900093B19EF800309BB19EF80130A3B19EF82F
:102AA00002300CF1040C002B0EF1040EEED10DE0FF
:102AB0004FF0000C0AE000BF4CF0010C06E000BF34
:102AC0004CF0020C02E000BF4CF0030C5FFA8CFCEF
:102AD000022303EB4C03138003220B704A7090F81F
:102AE00000E0BEF1000F33D0023002224FF0000CA4
:102AF0001AE000BF141DE4B244F0010E0B5501F8BA
:102B00000EC04378002B08BF10BD941DE4B244F002
:102B1000010E0B5501F80EC090F802E00832BEF12C
:102B2000000F00F1040013D0D3B243F0010401F808
:102B300003E001F804C010F8013C4BB1941CE4B26E
:102B400044F0010E0B5501F80EC00378002BD1D1D3
:102B500010BD0000D0F8B812002200200A737047A0
:102B6000B0B58121044600F003F9D4F8B80200257D
:102B7000E56218B100F05EFDC4F8B8520020B0BDA7
:102B8000014640F250100A22C2F200000A8070474B
:102B9000014640F2EC002922C2F200000A80704790
:102BA000014640F218102922C2F200000A80704744
:102BB000014640F25C102922C2F200000A807047F0
:102BC00010B5812103221623044600F0D3F9012019
:102BD000E062102000F030FD0028C4F8B8020FBFFA
:102BE000022001460020087310BD000080B590F857
:102BF0009C32032B05D194460A46D0F8B8120B7BC1
:102C000013B1002080BD00BF01230B7381216346F7
:102C100000F08EFA002080BD80B582B00B78D0F82D
:102C2000B8C2002213F06003ADF8062012D0202BAA
:102C300040F060804A78931E092B00F25B80DFE849
:102C400003F0052F59595959595921370CF10401ED
:102C500027E000BF4B780B2B4CD8DFE803F0074B85
:102C60004B4B4B4B2F4B4B4B194100BF90F89C22C9
:102C7000032A3FD10DF106010222FFF7C9FD002012
:102C800002B080BDC878CCF80400002002B080BD3E
:102C900090F89C22032A2DD10CF1080101E000BF1D
:102CA00061460122FFF7B4FD002002B080BD00BFE5
:102CB0008878CCF80000002002B080BDCA78212AB4
:102CC0001ED0222A16D1CA8840F22401752A28BFB4
:102CD0007522C2F20001FFF79BFD002002B080BD0B
:102CE00090F89C22032A05D18878CCF808000020AF
:102CF00002B080BDFFF774FD022002B080BD00BFAE
:102D0000CA8840F24411C2F20001092A28BF0922F0
:102D1000FFF77EFD002002B080BD0000002804BF48
:102D20000220704780B5D0F8B432002B1CBF0023BE
:102D3000C0F8B432002918BFC0F8B012012180F8E1
:102D40009C12027000F0D2F8002080BD80B5D0F84F
:102D5000C002FEF73FF940F200220223C100C0F298
:102D60000122042838BF22FA01F3D8B280BD000046
:102D700080B5D0F8C002FEF707F940F20022022326
:102D8000C100C0F20122042838BF22FA01F3D8B2F0
:102D900080BD0000B0B5044671B1D4F8B4024269F8
:102DA00042B194F89C02032804D1204690470020A9
:102DB00054E000BF0220B0BDD4F89402002818BF30
:102DC000042805D12046802100F084F93DE000BFB1
:102DD00002283AD1D4E90810814209D9081A83B2ED
:102DE0002062204611461A46FFF7F2FC14E000BFAD
:102DF000E169814218D3B1FBF0F202FB101098B9DF
:102E0000D4F8980281420FD22046002100220025EA
:102E1000FFF7DEFCC4F89852204600210022002370
:102E200000F0BCF811E000BFD4F8B402C16829B1C9
:102E300094F89C02032801D120468847204680212F
:102E400000F048F92046FFF7D7FC94F8A0020128CB
:102E50004FF0000004BF84F8A002B0BDB0BD000078
:102E6000B0B5044671B1D4F8B402826942B194F8A5
:102E70009C02032804D12046904700251CE000BF97
:102E80000220B0BDD4F894020025052816D00328EE
:102E900012D1D4E95810814218D9091AC4F8601126
:102EA000814238BF084683B2204611461A46FFF7D2
:102EB00087FC0020B0BD00BF2846B0BD20460021E1
:102EC000C4F8945200F006F92846B0BDD4F8B40214
:102ED000016929B194F89C02032801D12046884752
:102EE0002046FFF7A3FC0020B0BD000010B504464B
:102EF00040F2107045F60041C2F20000C4F2000139
:102F00000822022380E80E000021C0F8EC42C4F839
:102F1000C002C0E906110162FEF7DAFD002818BF01
:102F2000FDF7A4F9D4F8C002002100221823FDF710
:102F3000F5FFD4F8C002802100225823FDF7EEFFF0
:102F4000D4F8C002812100224FF48073FDF7E6FF20
:102F5000002010BDD0F8C00201F07F0202EB820217
:102F600000EBC20000F12A02090658BF00F5B57255
:102F70001078704780B59446D0F8C0021A46634670
:102F8000FEF758F840F200220223C100C0F20122ED
:102F9000042838BF22FA01F3D8B280BD80B5D0F83A
:102FA000C002FEF773F840F200220223C100C0F213
:102FB0000122042838BF22FA01F3D8B280BD0000F4
:102FC000F0B581B0002100224023044600254026B0
:102FD000FFF7D0FF01272046802100224023C4F8BC
:102FE0005871C4F86461FFF7C5FFD4F8B802A7614F
:102FF000666284F89C72C4F894526560C4F8A45266
:1030000028B1D4F8B402002142682046904700203D
:1030100001B0F0BD90F89C12042904BF90F89D12F5
:1030200080F89C120020704780B590F89C1203290C
:1030300005D1D0F8B412C969002918BF884700200B
:1030400080BD0000024600201174704780B5D0F8A2
:10305000C002FEF7EFFD40F200220223C100C0F2E1
:103060000122042838BF22FA01F3D8B280BD000043
:10307000B0B500F52A750446284600F06BF894F8C0
:10308000A8020121B4F8AE22C4F8941200F01F0186
:103090000229C4F8982209D001290DD091B92046FF
:1030A000294600F07FF80020B0BD00BF2046294629
:1030B00000F0DEF90020B0BD2046294600F07EFA7F
:1030C0000020B0BD00F08001204600F003F8002091
:1030D000B0BD000080B5D0F8C002FDF7F1FF40F2AE
:1030E00000220223C100C0F20122042838BF22FAC4
:1030F00001F3D8B280BD000080B5D0F8C002FEF761
:10310000B5FD40F200220223C100C0F201220428D2
:1031100038BF22FA01F3D8B280BD0000014690F812
:103120009C02042281F89D02002081F89C227047B5
:1031300080B5D0F8C002FDF7FFFF40F20022022365
:10314000C100C0F20122042838BF22FA01F3D8B22C
:1031500080BD00000A7802704A7842704A88428036
:103160008A888280C988C1807047000000290EBF0C
:103170000220C0F8B41200207047000080B5D0F8DB
:10318000B4223AB112689047002818BF01204000CD
:1031900080BD00BF022080BD80B5FFF7ADFF0020DD
:1031A00080BD0000B0B582B00D460978044611F02C
:1031B00060010DD0402902D0202940F04D81D4F883
:1031C000B4022946826820469047002002B0B0BD74
:1031D0006878092800F24081DFE810F00A00240036
:1031E0003E0130003E0166008A003E013800460084
:1031F00094F89C020138022800F22E81E888022807
:1032000040F02A81D4F8A4020322002808BF01223A
:10321000214641F80C2F20460222FFF7F9FA002040
:1032200002B0B0BD94F89C020138022800F214816B
:1032300068880128C9D1002004E000BF68880128FF
:10324000C3D10120C4F8A40200E100BFE88801282E
:1032500040F0028194F89C02411E02295ED20020B7
:10326000214641F8080F5DE0688840F2C115C1B2FF
:10327000C2F200050229287080F0EE8094F89C02CA
:10328000032857D0022840F07780002900F0DE8024
:10329000032084F89C0220466160FFF76FFF02283C
:1032A00040F0D480D8E000BFA888002840F0D48047
:1032B000E888002840F0D08068887F2800F2CC8021
:1032C00094F89C12032900F0C780C5B284F89E02CE
:1032D00020462946FFF7BAFE2046FFF7A7FA002D41
:1032E0000CBF0120022084F89C02002002B0B0BD77
:1032F00068884FF0FF3101EB102100220629ADF85C
:10330000062000F2A980DFE801F0054729A7A755AC
:103310005F0000BFD4F8B002026881E0032840F0EB
:103320009B80211D20460122FFF772FA002002B087
:10333000B0BD00BF002955D06068012800F086802C
:10334000C1B22046FFF734FA297820466160FFF7C2
:1033500015FF022840F07A807EE000BFC0B2052849
:1033600000F27A80DFE800F004484C50545800BF67
:10337000D4F8B002426852E020468021FFF7AAFE4E
:1033800020460021FFF7A6FE29782046FFF710FA15
:10339000002002B0B0BD00BF217CD4F8B4020029E7
:1033A0000CBF816AC16A0DF1060088470146022000
:1033B00015E000BF207C00284ED1D4F8B402416B48
:1033C0000DF1060088472FE0207C002844D1D4F876
:1033D000B402016B0DF106008847014607204870D2
:1033E00023E000BF022084F89C0200206060204699
:1033F000FFF7DEF92AE000BFD4F8B00282680EE0E1
:10340000D4F8B002C2680AE0D4F8B002026906E05B
:10341000D4F8B002426902E0D4F8B0028269DAB1AD
:10342000207C0DF1060190470146BDF8060048B129
:10343000EA883AB1904238BF02462046ADF80620ED
:10344000FFF7E6F9E88800287FF4BFAE2046FFF7D3
:10345000EDF9002002B0B0BD20468021FFF73AFE12
:1034600020460021FFF736FE002002B0B0BD00006C
:10347000B0B50A460978044611F060010CD0402925
:1034800001D0202920D1D4F8B40211468368204607
:1034900098470020B0BD00BF50781179F0B10128E5
:1034A00036D0032868D194F89C02032834D1508880
:1034B000002873D111F07F0070D0D08800286DD122
:1034C0002046FFF707FE69E020468021FFF702FE55
:1034D00020460021FFF7FEFD0020B0BD94F89C02BD
:1034E000032827D0022808BF5FEA416044D101F0D9
:1034F0007F0000EB800004EB800000F1140209065D
:1035000058BF00F5AA7200201060204611464FE017
:1035100094F89C02032839D002282DD148062BD0DC
:103520002046FFF7D7FD20468021FFF7D3FD00207E
:10353000B0BD00BF01F00F0202EB820211F080006B
:1035400004EB820214BF9269D2F85821A2B101F0B3
:103550007F0202EB820204EB820202F114050028D2
:1035600008BF02F5AA7548061ED02046FFF7F2FCF8
:10357000D0B1012019E000BF20468021FFF7AAFD4D
:1035800020460021FFF7A6FD0020B0BD508800288E
:10359000A2D1480602D02046FFF7D8FB2046FFF70D
:1035A00045F90020B0BD00BF002028602046294614
:1035B0000222FFF72DF90020B0BD0000B0B50D4686
:1035C0000978044611F0600118BF402912D194F81F
:1035D0009C020138022803D8A88810F0FE0F15D0ED
:1035E00020468021FFF776FD20460021FFF772FD7F
:1035F0000020B0BD2029EAD020468021FFF76AFDD7
:1036000020460021FFF766FD0BE000BFD4F8B402AE
:103610002946826820469047E988002908BF00288B
:1036200002D00020B0BD00BF2046FFF7FFF8002009
:10363000B0BD00007047000040F2C430C2F200008C
:10364000704700002DE9F0410F78024691F803E041
:1036500000EB870330F8270047F27066BEF1030FD6
:1036600020EA060408D80020DFE80EF002080F0C5C
:1036700044F4007408E000BF012006E044F48064D4
:1036800002E000BF44F4C064002048F28006CFF698
:10369000FF7634431C801C8840F60F7525403D435F
:1036A0002E431E800E7B48F2800C002E4AD01C88D0
:1036B00040F60F652C4048F28005BEF1020F08BFAE
:1036C00005F580752C431C80B2F850400E8902EB42
:1036D00007152C4426F00106A4F80064B2F8502027
:1036E0004C892A4424F00104A2F8084449781A8835
:1036F000002902F480414DD039B1198840F60F728B
:1037000011400CF58042114319801988490607D5EC
:10371000198840F60F7211400CF1400211431980D4
:10372000198840F63F7211400CF120024A40BEF168
:10373000010F08BF41EA0C021A80198843F60F7284
:1037400047E000BF4D78B2F85040002D4FEA071611
:1037500046D0C9883244224421F00101A2F8001465
:103760001988490607D5198840F60F7211400CF1E7
:10377000400211431980198840F63F72BEF1010FD3
:1037800001EA020126D00CF1200251401980BDE867
:10379000F08100BF39B1198840F60F7211400CF565
:1037A0008042114319801988490607D5198840F6C7
:1037B0000F7211400CF1400211431980198843F631
:1037C0000F7211400CF5405251401980198840F693
:1037D0003F72114041EA0C011980BDE8F08100BF41
:1037E0009519CE882C4426F00106A4F80864B2F896
:1037F00050E005F20C4434F80E506FF39F2524F886
:103800000E5009693F290DD3CE063EF804604FEAF9
:1038100051154FF0FF3808BF08EB511546EA8521D6
:1038200012E000BF71B101F001053EF8046005EB44
:10383000510146EA81212EF80410198849040DD45B
:1038400014E000BF3EF8041048F20005CFF6FF7503
:1038500029432EF804101988490407D5198840F621
:103860000F7631400CF580463143198057B11988E5
:1038700043F60F7211400CF5005251401980BDE81B
:10388000F08100BF118843F60F7211400CF54052D1
:1038900051401980BDE8F08100207047B0B50C7828
:1038A0004B78097B024630F824004CF2800C4CF235
:1038B000800500294FEA44013AD0002B00F48040F3
:1038C00040D040B132F8110040F60F73184040EA82
:1038D0000C0022F8110032F8110043F60F7E40066A
:1038E00040F63F7009D532F8113040F60F7423408E
:1038F000ACF57F54234322F8113032F8113040F6F2
:103900000F7423402B43ACF5804522F8113032F878
:1039100011301840284322F8110032F81100ACF59C
:10392000804300EA0E000343002022F81130B0BDAE
:10393000F3B1400640F63F7EEFD5ACF57F5540F63B
:103940000F70E4E740B132F8110040F60F731840F1
:1039500040EA0C0022F8110032F81100ACF57F5556
:10396000400640F63F7E43F60F70BCD4C5E700BF6B
:10397000400443F60F7ED0D540F60F70C7E7000035
:10398000002070470020704701460120A1F8400048
:1039900000220020A1F84020A1F84420A1F85020E6
:1039A000704700000146B0F8400044F2FF020240B8
:1039B0000020A1F8402070470020704780B50A7BA6
:1039C00012B1002080BD00BF0A784B7830F822C0C9
:1039D0004FEA4202B3B15FEA4C6348F2A00E0BD546
:1039E00030F812C040F60F730CEA030C0EF12003FE
:1039F00043EA0C0320F81230C9780129E1D040F6DF
:103A00003F7110E05FEA4C414BF2800E09D530F86F
:103A1000121040F60F7319400EF58053194320F829
:103A2000121043F60F7130F81230194081EA0E017E
:103A300020F81210002080BD02460B78487832F83A
:103A400023C040F63F71002848F2900008BF43F6BB
:103A50000F71CFF6FF7008BF00F57F6001EA0C011F
:103A60004140002022F82310704700002DE9F04F5C
:103A700081B04B78012B57D18A690C690B7BA2422C
:103A800088BF2246002B48F2800B75D0CB780D6A98
:103A9000022B40F0B9800E7840F60F6730F82630E0
:103AA0004FEA460EA54203EA070340F20B810BF5ED
:103AB00080773B43A5EB020820F81E30C1F8208038
:103AC00030F81E70B0F8505036017F0600EB060C3F
:103AD00000F14C810CEB0507A7F80424D1F814A0E1
:103AE000170400F0F5820F894FF0FF3600EB47070F
:103AF00007F5806997B20137C7F3410506EB570315
:103B0000002D4FEA570700F0CD815646009336F856
:103B1000023BCB46012D2BF8043B40F0C781013F0F
:103B2000D94648F2800BC0E20A7B002A48D0CA7806
:103B3000012A00F09D80022A40F0C080002B40F056
:103B40008E82B0F850300A780344120103F2044721
:103B5000BB5A6FF39F23BB520B693F2BC0F03E81D2
:103B6000DC064FEA5316D45B4FF0FF3508BF05EB78
:103B7000531644EA8626BCE1130400F06381CB8827
:103B8000D1F8148000EB430303F5806993B201334D
:103B90004FF0FF37C3F3410407EB530E002C4FEAFD
:103BA000530300F03C81474637F8025B4E46012C38
:103BB00026F8045B40F00681013BB846B1462EE191
:103BC0008A690E69931B38BF00238B61B0F850706F
:103BD0000B7807444FEA031307F20C47FD5A88BFDE
:103BE00032466FF39F253F2AFD52C0F0BE81D406B6
:103BF000DC5B4FEA52164FF0FF3508BF05EB52165B
:103C000044EA8622BBE100BFAB1A0F780B6230F8A2
:103C10002760B0F850303C014FEA470E071976068E
:103C20003B447DD41704A3F8042400F015810F89C8
:103C30004B6900EB470101F5806491B201314FF00F
:103C4000FF32C1F3410502EB510C002D4FEA510147
:103C500000F0B1811E4636F8022B2746012D27F8C9
:103C6000042B40F00181013933463C46A3E100BFFB
:103C70000F698A69D61B38BF002688BF3A46002BD9
:103C80008E6140F07F81B0F850700B7807441B01C3
:103C900007F20447FE5A3F2A6FF39F26FE52C0F0F8
:103CA000A980D4064FEA5216DC5B4FF0FF3508BFFF
:103CB00005EB521644EA862645E100BF012001B01B
:103CC000BDE8F08F43EA0B0220F81E20B0F8502028
:103CD00000EB06131A442B04A2F8045400F0BC8035
:103CE0000B894A6900EB430101F58063A9B20131F8
:103CF0004FF0FF37C1F3410507EB510C002D4FEAA0
:103D0000510100F07481164636F8024B1F46012D12
:103D100027F8044B40F0B280013932463B4666E159
:103D20001704A3F80C2400F097804F894B6900EB2F
:103D3000470101F5806491B201314FF0FF32C1F3C8
:103D4000410502EB510C002D4FEA510100F0698151
:103D50001E4636F8022B2746012D27F8042B40F08B
:103D60009780013933463C465BE100BF6544A5F8C6
:103D70000C24D1F814A0150400F0FE814D8900EB4D
:103D8000450505F5806995B26E1C4FF0FF3505EBD2
:103D90005603C6F34105002D4FEA560700F0848014
:103DA00056460093634636F802CBCB46012D2BF8DE
:103DB00004CB40F08B809C46009B013FD94648F2E3
:103DC000800BC8E1B8F80250022CA9F804501DD1AC
:103DD00009F1080908F10408023B20E0002B00F07B
:103DE000878003F00106D55B06EB530645EA86267D
:103DF00084E000BF002A00F0A58002F00106DD5B30
:103E000006EB520645EA8626A2E000BFB8F8044059
:103E100008F10608A9F8084009F10C09033BBEF1B6
:103E2000030F0FD3A8F10807A9F1100637F8085FB0
:103E3000043B26F8105F7D88B580BD883581FD88FC
:103E4000B581F3D1B0F850300978034403EB011386
:103E5000A3F804244FEA410E00EB4E000BF13001B1
:103E600040F63F7299E000BF5A88022DA28040F0D0
:103E70009D800834043302399DE000BF5488022D30
:103E80009C8040F0AF80083304320239AFE000BFBD
:103E90005A88022DA28040F0BF80083404330239D2
:103EA000BFE000BF564601E1564654E1BAF8023081
:103EB000022D48F2800BA9F8043040F0ED8009F1A2
:103EC00008090AF10406023FEFE000BFBAF80260F9
:103ED0009C46A9F80460009B022D48F2800B40F03C
:103EE000318109F108090AF10406023F33E100BFFC
:103EF000D65B48F20005CFF6FF752E43D653B0F8D7
:103F000050703F2B074407F20C47BE5A6FF39F26B1
:103F1000BE520BD3DC06D45B4FEA53164FF0FF358D
:103F200008BF05EB531644EA862392E0002B00F00D
:103F30008F8003F00106D55B06EB530345EA83232C
:103F40008CE000BFDE5B48F20005CFF6FF752E4324
:103F5000DE53B0F850703F2A074407F20C47FE5A70
:103F60006FF39F26FE52BFF442AE3AB102F0010653
:103F7000DD5B06EB520245EA822202E0DA5B42F4A4
:103F80000042DA53097843F60F7200EB810048F2E1
:103F90008001CFF6FF7101F5405103881A4051406E
:103FA0000180002001B0BDE8F08F00BF9A88063381
:103FB00022810C340339BCF1030FFFF44DAFA3F1A0
:103FC0000802A4F1100300BF32F8087F043923F877
:103FD000107F57889F8097881F81D7889F81F3D152
:103FE0003AE700BF948806321C810C330339BCF1D8
:103FF000030FFFF431AF083A103B00BF32F8087FDF
:10400000043923F8107F57889F8097881F81D788AD
:104010009F81F3D120E700BF9A88063322810C34B8
:104020000339BCF1030FFFF417AFA3F10802A4F1A9
:10403000100300BF32F8087F043923F8107F578837
:104040009F8097881F81D7889F81F3D104E700BFA5
:10405000D35B48F20006CFF6FF763343D353CA69E9
:10406000002A8FD00A7844F2400730F822303B40D3
:10407000BB4202D0002B7FF485AF520030F81230E3
:1040800040F60F773B4048F28007CFF6FF773B437F
:10409000403320F8123075E7BAF804300AF106060A
:1040A000A9F8083009F10C09033F009B032B0FD33B
:1040B000083EA9F1100500BF36F8083F043F25F877
:1040C000103F7388AB80B3882B81F388AB81F3D129
:1040D0000AEB020600234E61A04588BFA8EB02034D
:1040E0000B62B0F8503088BF90460CEB03025FEAD9
:1040F0000843A2F80C843FF4AFAE49894FF0FF3378
:1041000000EB410101F580621FFA88F10131C1F332
:10411000410403EB5103002C4FEA510169D036F8FA
:10412000027B1546012C25F8047B03D101392A4670
:104130005FE000BF36F8027B022C978054D1083232
:10414000023956E0BAF80460033FA9F8086009F1A3
:104150000C090AF10606032B0ED3083EA9F110053F
:1041600036F8083F043F25F8103F7388AB80B388CA
:104170002B81F388AB81F3D10AEB020600234E6159
:10418000A04588BFA8EB02030B62B0F8503088BF8F
:1041900090460CEB03025FEA0843A2F804843FF464
:1041A0005BAE09894FF0FF3300EB410101F58062FE
:1041B0001FFA88F10131C1F3410403EB51034FEAC7
:1041C000510184B336F8027B1546012C25F8047B97
:1041D00002D101392A4626E036F8027B022C97806C
:1041E0001CD1083202391EE036F8027B03391781F0
:1041F0000C32032BFFF430AEA6F10803103A00BFD7
:1042000033F8087F043922F8107F5F8897809F88F1
:104210001781DF889781F3D11EE600BF36F8027B55
:10422000033917810C32032BFFF416AEA6F10803F5
:10423000103A00BF33F8087F043922F8107F5F88F6
:1042400097809F881781DF889781F3D104E600006B
:1042500001460020A1F844004FF43F420020A1F89D
:104260004020704740F21070C2F20000FCF780BF9F
:10427000B0F844007047000070B500EB4200022B1C
:1042800000F5806441D34FF0FF32C3F34105580875
:1042900002EB530C55B1224632F8046B8E46012DC9
:1042A0002EF8026B08D1013817E000BF2246BCF19E
:1042B000030F14462AD315E0A288022D4A8005D1A7
:1042C00001F1040E04F10802023806E0228901F12E
:1042D000060E8A8004F10C0203387146BCF1030F0C
:1042E000144613D332F8106B043821F8086B32F8F7
:1042F0000C6C21F8066C32F8086C21F8046C32F86A
:10430000046C21F8026CEDD114468E46D8071CBF10
:1043100020888EF8000070BD00207047002904BF7F
:104320008021A0F84C10002070470000B0B5002B91
:104330003ED000EB420000F5806E581C4FF0FF327B
:10434000C0F3410302EB500C4FEA5000EBB10A46B8
:1043500032F8025B7446012B24F8045B04D1013867
:104360001146A64611E000BF4A88022BAEF8042091
:1043700004D10EF1080E0431023806E08A880631B5
:10438000AEF808200EF10C0E0338BCF1030F38BF55
:10439000B0BD0839AEF1100231F8083F043822F8F8
:1043A000103F4B8893808B881381CB889381F3D106
:1043B000B0BD0000FEE7000094B0FCF711FD002442
:1043C0000120CDE90F44CDE90D440A900E904FF441
:1043D000E0104FF48031022513900AA80294CDE931
:1043E0000B14CDE91151FDF775FE28B1EFF31080E4
:1043F00072B600BFFEE700BF0F20CDE905054FF400
:104400008060CDE9080405A802210794FDF75AFD54
:1044100020B1EFF3108072B6FEE700BF12200190CA
:104420004FF4004003900020049001A8FDF7C4FC65
:1044300020B1EFF3108072B6FEE700BF40F60044F3
:10444000C4F20104FEF72CF9FEF710F9FEF778F933
:10445000FEF7E0F8FEF756F940F2B016C2F2000699
:10446000316802203081C1EBC110000B40F2A6156B
:1044700040F2D83840F29C674CF6CD49B0723220F9
:10448000C2F20005C2F20008C2F20007CCF6CC4925
:10449000A6F80B0063E000BFE87800F0FD00E870CC
:1044A0000520FCF765FB404629460922FEF79EFBE6
:1044B0003846FCF7E3F938463221FCF7ABF83846CA
:1044C000FBF7A4FF31687060084430603846FBF7A2
:1044D0009DFF31687060084430603846FBF796FFF6
:1044E00031687060084430603846FBF78FFF3168F0
:1044F0007060084430603846FBF788FF31687060B0
:10450000084430603846FBF781FF3168706008442A
:1045100030603846FBF77AFF3168706008443060DD
:104520003846FBF773FF31687060084430603846E6
:10453000FBF76CFF316870600144A1FB0912D008E1
:1045400030600520FCF714FB306806F10801C0EB71
:10455000C010000BB07240460922FEF747FB204610
:104560000221FCF723FCB0FA80F040098000E870DB
:1045700020460121FCF71AFC00284FF0000008BF7C
:104580001620287120464FF48061FCF70FFC0028AC
:104590004FF0000008BF0720687120464FF480519B
:1045A000FCF704FC00284FF0000008BF0D20A871A4
:1045B00020464FF40051FCF7F9FB00284FF00000B3
:1045C00008BF0E20E87120464FF48041FCF7EEFB57
:1045D00000284FF0000008BF0F20287220464FF43B
:1045E0000061FCF7E3FB28B1E87800F0FE00E8701A
:1045F00004E000BF707A40F00100707220464FF472
:104600000041FCF7D3FB00287FF446AF707A40F0FE
:104610000200707244E702E008C8121F08C1002AB5
:10462000FAD170477047002001E001C1121F002A33
:10463000FBD17047000000000000000001020304ED
:10464000060708090000000001020304010202033A
:104650000405060708090A0B0C0D0E0F10100000C8
:104660008046000800000020B0010000480100085A
:1046700088470008B0010020A01800002646000866
:10468000320132101369281B08A1041AB1041ADD83
:1046900004130D291B0845081A7904101005010997
:1046A00006A1018501050719E029E715281A25014A
:1046B00075019508810295017508810395057501BD
:1046C000050819012905911218080391039506752B
:1046D00008261A653011142965811AC0411A024151
:1046E00015020901A11B05092B2A03453D950375F8
:1046F00001451C0581032240103009311581257FB9
:10470000750895028102C0C01324F413120132020D
:10471000164083042B571D02010203B113C12B1B4A
:1047200008610413192C82081A551001101AA114DB
:104730001A91041AB1041A810414090229130101FF
:1047400025E0320904194A12011509211101140149
:1047500022751A07841216170A0705010310320A78
:10476000B92CED010301022CA207791A314B0A067C
:10477000B019A70920442969710718040309041A0C
:0847800003294E610000000056
:04000005080000ED02
:00000001FF
